:04000000F9EF08F01C
:100F0000000A0D4C6F636B65640A0D000A0D556E87
:100F10006C6F636B656400002B502C10D8B493EF9A
:100F200007F095EF07F09EEF07F02B502C10D8A498
:100F30009CEF07F09EEF07F0A3EF07F0295034EC89
:100F400009F0F0EF07F020EE0AF02B50D9262C50D4
:100F5000DA22DE50DE10D8B4B0EF07F0B2EF07F0BF
:100F6000CDEF07F020EE0AF02B50D9262C50DA22D4
:100F700010EE03F02B50E1262C50E222DE50E65C0E
:100F8000E650800A316EDE50800A3158D8B0CBEF7F
:100F900007F0CDEF07F0F0EF07F020EE03F02B5055
:100FA000D9262C50DA22DECF2DF0DDCF2EF02BC04B
:100FB000D9FF2CC0DAFFDECF2FF0DDCF30F02D507F
:100FC0002F24D96E2E503020DA6E29C0DFFF20EE9C
:100FD00003F02B50D9262C50DA22DE2A000EDD2217
:100FE00012000FEC09F0000E286E2F0E276EABECEE
:100FF00008F0D8EC08F03D6E3D503E6E3F6A3E5022
:1010000004EC09F0550E3E183F10D8A40AEF08F082
:101010000CEF08F016EF08F00C0E3B6EECEC08F04D
:10102000000E286E480E276EABEC08F04C0E3E18F2
:101030003F10D8A41EEF08F020EF08F02CEF08F0C6
:10104000010E3B6EECEC08F0000E286E160E276EBB
:10105000ABEC08F0F9EF07F0090E3B6EECEC08F092
:10106000F9EF07F000EF00F03450D96EDA6ADFCF05
:10107000F6FF0F0EF76E0800F550250AD8A443EFCF
:1010800008F045EF08F057EF08F03450D96EDA6AEF
:10109000DF2A000E226E000E216E21C025F023688B
:1010A00024683450D96EDA6ADF2A6AEF08F03450C7
:1010B000D96EDA6ADFCFF6FF0F0EF76E0800F55033
:1010C000296E2A6A32C02BF033C02CF08CEC07F06A
:1010D00051EF08F0120038C03AF079EF08F036C04E
:1010E00032F037C033F03A0E346E39C035F034EC9C
:1010F00008F03AC0F6FF0F0EF76E0800F550000931
:10110000D8A485EF08F087EF08F06FEF08F0000E25
:10111000376E000E366E1200080EA76E900EAB6E84
:10112000240EAC6ECF0EAF6E000E7D6E000E276EDD
:10113000000E286E3EEC09F0000E276E000E286EA1
:1011400039EC09F0000E276E000E286E43EC09F012
:10115000000E266E120027C029F028C02AF0D89071
:101160002A322932D8902A32293229500F01516F60
:1011700027C029F0030E2916293AF00E29165051DE
:10118000CF0B2910506F1200000E896E000E8A6E70
:10119000000E8B6EEF0E926E9368BB0E946E1F0E58
:1011A0000F015D6F070E5C6F000E5B6FF18E12001A
:1011B0009EAADDEF08F0DFEF08F0D8EF08F0000E90
:1011C000266EABA2E6EF08F0E8EF08F0EAEF08F0D1
:1011D000AB98AB88AE5012003C0E3C6E000E366EE3
:1011E000000E376E3BC038F03C0E396E6BEC08F0E9
:1011F000120000EE01F0260EEE6AE806FDE1000E98
:10120000F86E0001F1EF07F0276E9EA80AEF09F0D3
:101210000CEF09F005EF09F027C0ADFF1200C4EC98
:1012200008F023EC09F02CEC09F01AEC09F08CEC36
:1012300008F012001C0E0F01506F050E516F000ECA
:10124000526F99921200200ED36E000ED26E000ED5
:101250009B6E000E9A6E12009C0ECB6E000ECC6E32
:101260009E92060ECA6E1200286E285004EC09F0F9
:10127000120027C042F028C043F0120027C044F0FB
:1012800028C045F0120027C040F028C041F01200ED
:020000040030CA
:0E00000015087F50FF8991FF0FC00FE00F40E1
:00000001FF
